:10000000580900200916000005160000051600001A
:1000100000000000000000000000000000000000E0
:1000200000000000000000000000000005160000B5
:10003000000000000000000005160000051600008A
:100040000516000005160000051600000516000044
:100050000516000005160000051600000516000034
:10006000051600007D0400008D0400009D040000C2
:10007000C11400000516000005160000051600005A
:1000800005160000051600000516000010B5064C08
:100090002378002B07D1054B002B02D0044800E049
:1000A00000BF0123237010BD3004002000000000B9
:1000B000C022000008B5084B002B03D007480849B0
:1000C00000E000BF07480368002B03D0064B002B5D
:1000D00000D0984708BDC04600000000C0220000C4
:1000E00034040020C02200000000000010B5031CF2
:1000F0004908402099420CD30024C91A601C80B2E0
:100100008B4201D8041CF8E74020FF2C01D8148052
:10011000002010BD00000000F0B55F4656464D4679
:100120004446F0B487B0061C0D1C049210AA107847
:10013000321C424340248A4200D9B3E0002B4BD109
:100140000021321C5E4CA04783462E1C0027002055
:100150000021002200233F24A4460125A846029046
:1001600003916146203903D440468840814605E02A
:10017000202165464C1B4046E0408146414664468E
:10018000A1408A46101C191C80185941021C0B1CE6
:100190005D464C46254202D0424602430B1C9F421C
:1001A0000CD801D1964209D8921BBB415046029D02
:1001B00028434946039C2143029003916546013D33
:1001C000AC46CED2029803993C4B3B4A121A8B4163
:1001D000120C1B041A4362E00022012B5FD14F0F67
:1001E000B946CD00AB460021321C0023344CA04759
:1001F000061C0F1C00230125029603979A465046C1
:10020000C0B2059000218846002200233F24271C0D
:10021000203F03D42E1CBE40019604E02020071B83
:10022000291CF94001912E1CA6400096101C191C97
:1002300080185941021C0B1C5F463740BC46019E8A
:100240004F463E4067463E4302D02A1C02430B1CE9
:10025000039898420BD802D10299914207D8029E86
:10026000039F921BBB41474600980743B846013C99
:10027000CDD2414652468B1ADB08124CA34208D914
:10028000059A0132D2B205920126B2445746082F90
:10029000B5D140240598082804D042031A43049C91
:1002A00022800024201C07B03CBC90469946A24600
:1002B000AB46F0BDC046C046000000000100000093
:1002C0009D1F0000FF1F000010B582B0041C0F4BE3
:1002D0001B78002B01D000290DD001A90C700D2036
:1002E0000B4B98470D200B4B9847084B5C70012235
:1002F0001A70002007E0054B5A781D20141B621E5F
:1003000094416442204002B010BDC0464C0400201D
:10031000ED1D0000611D0000214B984216D0214BBD
:10032000984224D0204B984232D1012932D0002962
:1003300004D0022906D0032906D001E01B482EE094
:1003400000202CE01A482AE01A4828E0012923D08E
:10035000002904D0022906D0032906D001E016485E
:100360001DE000201BE0154819E0154817E00129A1
:1003700014D0002904D0022906D0032906D001E0B8
:1003800010480CE000200AE00F4808E00F4806E0A3
:10039000002004E00E4802E00E4800E00E487047DE
:1003A000000C00420010004200080042030004005C
:1003B00003000600030007000200160003001E00F1
:1003C00003001F00030016000300100003001900C3
:1003D0000300050002001700030017007047C04625
:1003E00070B584B001AB0B4A70CA70C3031C019A8C
:1003F00082420AD0029C844205D00020039D9D4287
:1004000005D1022002E0012000E00020C0B204B0CB
:1004100070BDC046C421000030B50A4B1B78002BCC
:100420000BD1084B084D5D60084A002414609D60A4
:100430005460DD60946001221A708000014B18182E
:10044000416030BD54040020DD030000940400200E
:1004500030B583B0051C01AC201C05490C310322CA
:10046000044B9847281C044B9847205603B030BDD6
:10047000C421000029200000E103000008B5024B60
:100480005B680020984708BD5404002008B5024B63
:100490009B680120984708BD5404002008B5024B12
:1004A000DB680220984708BD54040020F0B5474699
:1004B00080B486B0051C0C1C161C29600B681C201F
:1004C0009A0700D5B7E00B680520DA0700D5B2E03F
:1004D000081C5B4B98475B4B196A821C01279740AD
:1004E0003A1C0A431A6205A92427F35D0B700E30EB
:1004F000C0B28046544B98474046544B9847F05DF5
:100500000021534B98473378002B00D090E02268AD
:100510000823134323608BE0EA18D16004331C2BBB
:10052000FAD10023EB62AB620024AB862B86362324
:10053000EC543723EC543823EC5403236B722C71A6
:1005400028683F4B9847071C4249434B9847BF00D8
:10055000424BFD502F68802368460370447001238E
:100560008370C470B26A0192F36A0293306B039095
:10057000726B04920024E1B2A30001AA98580028EB
:1005800002D1381C364B9847421C06D06B46187077
:10059000000CC0B26946334A90470134042CEAD1BA
:1005A00033786B71337CAB71B37CEB71337D2B7221
:1005B0003378002B0FD1B169B38B786AF47F2404B0
:1005C000B27F224302437A622022B25C002A04D026
:1005D0004022134301E000230021B2687068024307
:1005E000F06802430A43317C0B43717C002903D13C
:1005F0001D498978880701D580210A43B17C0029EB
:1006000002D0802189020B43F17C002902D0802195
:1006100089000B43317D002902D0802189010B43E1
:1006200039680A433A607A6813437B60002002E02D
:100630000023002170E706B004BC9046F0BDC04620
:10064000E103000000040040ED1D0000611D0000FA
:10065000C90200008506000019040000940400206F
:1006600019030000C51E000000200041931C9B00E0
:10067000C3185960012393401A1C3623C15C0A43F6
:10068000C2547047F8B58000674BC45825683623BC
:10069000E35C3722A75C1F402B7EAE7D1E40F10736
:1006A0002FD56379002B2CD1637A002B29D0E36AF4
:1006B0001A78D2B2591CE162A179012904D1597882
:1006C00009020A430233E362D305DB0DAB62A38E5A
:1006D000013B9BB2A386A38E9BB2002B11D10123B9
:1006E0002B75637A012B0CD1E379002B09D10323FD
:1006F000637200223823E254FA0702D5201CE36813
:100700009847710761D56B8B5A0714D5637A012B13
:100710000BD01E223823E2540323637205232B756A
:100720003B0702D5201CA1698847AB6A6A8B04236A
:1007300013436B8349E0637A012B16D123689B6ACC
:10074000638E013B9BB26386638E9BB2002B3CD1D0
:1007500004232B7500223823E25403236372FA0723
:1007600033D5201CE36898472FE023689A6AD205A6
:10077000D20DD3B2A16A0B70A36A591CA162A179F0
:10078000012904D1120A5A70A36A0133A362238E8D
:10079000013B9BB22386238E9BB2002B15D10022F6
:1007A0003823E25404232B75637A022B05D17A0790
:1007B0000BD5201C6369984707E0637A002B04D1AE
:1007C000B90702D5201C22699047B30713D5637976
:1007D000002B10D107232B7502232B760323637282
:1007E0000023A386238638230022E254F90602D58B
:1007F000201CE269904733070AD56379002B07D1A3
:1008000008232B752B76B90602D5201C226A904747
:10081000F60907D080232B752B767B0602D5636AF9
:10082000201C9847F8BDC04694040020F0B55F46F0
:1008300056464D464446F0B491B0051C0C1C161C9F
:100840002960081CAB4B9847021C23680520D90778
:1008500000D547E123681C209F0700D542E1A64B45
:10086000186A911C01278F40391C014319620FA996
:100870002D27F35D0B700E32D2B29046101C9F4BA9
:10088000984740469E4B9847F05D00219D4B984706
:10089000F37A6B712423F35CAB712523F35CEB716A
:1008A000F37E2B72337F6B7229688846081C914B4C
:1008B00098470E3000226B46DA84328A02928023F7
:1008C000DB019A4221D08023DB019A4204D88023A5
:1008D0009B019A4211D008E0C023DB01029F9F4296
:1008E0000FD080231B029F4203D0102706970027BA
:1008F0000EE00327069700270AE010270697012736
:1009000006E008270697012702E008270697002738
:1009100031680391F268914673690493317E8A4687
:100920002623F35C9B467368002B13D0802252056C
:1009300093422ED12723F35C002B2ED1376AC0B20D
:10094000714B9847011C381C6A4626326F4B9847FA
:10095000031C1FE02723F35C002B0AD0069A0092A9
:10096000306AB16A6A4626323B1C694FB847031C9D
:1009700010E0316A0791C0B2634B9847011C069A98
:10098000009207986A4626323B1C614FB847031C09
:1009900000E00023181E00D0A4E0737E002B02D0DC
:1009A000B37E41468B732A68029FD369002BFCD12A
:1009B00002976B4626331B88424693814B46039F22
:1009C0003B43049F3B4371680B43029F1F435246C6
:1009D00013021F4359464B071F432723F35C002B89
:1009E00001D104231F43717E8902337F5B021943C7
:1009F000F27AB37A13431943737F1B0219432423FA
:100A0000F35C5B0419432523F35C1B04194333890E
:100A1000FF2B07D0F27E002A02D0A022D204174377
:100A2000194305E0F37E002B02D08023DB041F4333
:100A30002C23F35C002B03D1364B9B789A0701D50E
:100A400080231F432A68D369002BFCD14346596099
:100A50002A68D369002BFCD141460F600EAB80227F
:100A60001A7000225A70DA709A70326B0A92736BA5
:100A70000B93B76B0C97F66B0D9600270EAEF9B281
:100A8000BB000AAA9858002802D1201C224A90478D
:100A9000431C05D03070000CC0B2311C1F4A904777
:100AA0000137042FEBD10023EB602B616B61AB614D
:100AB000EB612B62AB626B620022EB85AB8530236E
:100AC000EA543123EA543223EA543323EA5428689F
:100AD000084B9847041C1249124B9847A400124B2C
:100AE000E550002011B03CBC90469946A246AB466A
:100AF000F0BDC046E103000000040040ED1D000011
:100B0000611D0000C9020000091E0000ED00000088
:100B1000190100000020004119030000C51E00005B
:100B2000750B00001904000094040020931C9B0026
:100B3000C3185960012393401A1C3023C15C0A4337
:100B4000C254704710B51723002A11D0C48DA4B227
:100B50000523002C0CD1C4791C23002C08D0036879
:100B6000C285816205213322815401229A750023B6
:100B7000181C10BDF8B58000644BC5582C68E3699B
:100B8000002BFCD1237EA67D1E403123EB5C30225E
:100B9000AF5C1F40F10720D5EB8D9BB2002B1AD024
:100BA000AB6A1A78D2B2591CA9626979012904D1B9
:100BB000597809020A430233AB62D305DB0D238562
:100BC000EB8D013B9BB2EB85002B06D101232375F6
:100BD0000223A37501E001232375B20709D502237F
:100BE000237500223323EA54FB0702D5281CE96849
:100BF000884772076AD5AB8D9BB2002B64D0638B9C
:100C0000DBB2190702D43F22134001E03722134020
:100C1000002B37D09A0707D51A223223EA54628B69
:100C200002231343638327E0590707D51E2232238B
:100C3000EA54628B0423134363831DE0DA0707D56C
:100C400013223223EA54628B01231343638313E09C
:100C5000D90607D542223223EA54628B102313436C
:100C6000638309E020221A4206D041223223EA544B
:100C7000628B2023134363837A0727D5281C6B6973
:100C8000984723E0228DD205D20DD3B2696A0B704A
:100C90006B6A591C69626979012904D1120A5A7078
:100CA0006B6A01336B62AB8D013B9BB2AB85002B52
:100CB0000CD10423237500223223EA54BA0705D548
:100CC000281C2B69984701E004232375F10607D5FA
:100CD000102323752376FA0602D5281CEB69984762
:100CE000B10607D52023237523763A0702D5281CA1
:100CF000AB699847310707D5082323752376BA06D1
:100D000002D52B6A281C9847F8BDC04694040020E1
:100D10007047C0467047C0467047C0467047C046DF
:100D20007047C04670B58EB00023019302936946A8
:100D30000B744B7401248C74CC740B7524228B546B
:100D4000079308930B7020228C54069380239B02F8
:100D500003931E4B0A931E4B0B931E4B0C931E4B7F
:100D60000D931E4E301C1E496A461E4B984735682F
:100D7000281C1D4B98471F23184084401B4B1C60A8
:100D80003268D369002BFCD12A68022313432B60FD
:100D9000124C201C16490122164EB0473725625DC1
:100DA000022313436355201C13490022B047625DA0
:100DB000012313436355201C10490222B047625D92
:100DC0000423134363550EB070BDC04603000E00EC
:100DD00003000F000300100003001900A00400200E
:100DE00000100042AD0400005104000000E100E0EA
:100DF000110D00006D060000150D0000190D00001A
:100E000070B590B08023DB0500930023019300228E
:100E100068468372C372012424214454252144541A
:100E200026214354272143540A932C2143542D2136
:100E30004354059303820021C17602760277132181
:100E400081764277E1225202089203814476802320
:100E50005B030393194B0C93194B0D9301235B42D6
:100E60000E930F93174E301C17496A46174B98473D
:100E70003568281C164B98471F2318408440154B93
:100E80001C603268D369002BFCD12A68022313430B
:100E90002B600C4C201C10490122104EB04731250C
:100EA000625D022313436355201C0D490022B047A5
:100EB000625D01231343635510B070BD020016003C
:100EC00002001700DC040020000C00422D08000086
:100ED0005104000000E100E01D0D00002D0B00009A
:100EE000210D000008B5024B9847024B984708BDFA
:100EF000250D0000010E0000002070470023036054
:100F00004C4A42608372C372037343720372C361BB
:100F1000036243628362037543758375C375037609
:100F20004376037443748374C3742C2283542D2238
:100F300083542E2283542F2283543022835431220F
:100F400083543222835433228354342283543522EF
:100F500083543622835437228354382283543922CF
:100F600083543A2283543B2283543C2283543D22AF
:100F700083543E2283543F2283544022835441228F
:100F8000835442228354432283544422835445226F
:100F9000835446228354472283544822835449224F
:100FA00083544A2283544B2283544C2283544D222F
:100FB00083544E2283544F2283545022835451220F
:100FC00083545222835453228354542283545522EF
:100FD0008354562283545722835498228354836522
:100FE000836799228354C365C3679A228354036637
:100FF000802283509B2283544366842283509C2208
:1010000083548366882283509D228354C3668C2236
:1010100083509E2283540367902283509F228354DF
:101020004367942283500121A0228154A12283543A
:101030007047C046FFFFFF00F0B55F4656464D467D
:101040004446F0B48DB0061C0C1C151C081CCE4B7D
:101050009847031CCD4A106A20210143116222687F
:101060001C20910700D5D9E12268D70700D5D5E12A
:101070001720C74A2968914200D9CFE16F6897428B
:1010800000D9CBE1E869904200D96BE1296A91422D
:1010900000D969E16F6A974200D967E1A86A904276
:1010A00000D965E10022A91898310978002902D0F9
:1010B000072A00DD5EE10132082AF4D12A7C013AD8
:1010C00051424A41120603926A7C012A08D18022C9
:1010D0009204039F17430397AA7C012A0AD103E0D5
:1010E000AA7C012A00D08BE18022D204039F1743FF
:1010F000039785E1EA7C012A04D180221205039F2F
:1011000017430397A122AA5C002A04D0802212016F
:10111000039F174303972F7B0697EF7A07972A7A47
:10112000511E8A41920004926A7A012A02D1049FD8
:10113000174304972A1C2C32507A032800D921E146
:101140002C22AF5C0F2F00D91CE12C2149198846B5
:101150003622521993460AA90BAA02924246B04679
:101160005E46A146AA469B460AE0321C707A0328D6
:1011700000D907E137780A3604310F2F00D901E191
:101180003D06F0231B051D405478240493785F1E10
:10119000BB41DB010193D7787B1E9F41FF00009785
:1011A00017797B1E9F413F01BC468002C0273F014B
:1011B0003840054350790323184005432C43907968
:1011C0004001602738400443D0790002C0239B00CF
:1011D00018400443107A0003E027FF013840221C26
:1011E0000243019B1343009F1F43604607430F6068
:1011F000029A9142B9D146464C4655465B46514605
:10120000413100270022012080460220FF30814624
:10121000802040028446A81850300078002809D069
:10122000072A00D9A8E060469040074308780028C4
:1012300006D10EE0087800280BD0072A00D99DE0DF
:10124000022803D148469040074302E040469040C0
:10125000074301320231082ADDD1A9E080221203BE
:101260004146114388460022101CB11848600432E0
:10127000302AFAD1002291467263B2639B00454A3C
:101280009E503460A023EA5C3C23F25409A9AB7A57
:101290000B701120404B98471120404B9847782104
:1012A00049194E4601229146231C0C1C9A46AB1943
:1012B00098331B78002B13D0484622236B441870B8
:1012C0000023232169440B70236808AA137021218D
:1012D00069440870231C203B1878111C304A904741
:1012E00001360434082EE2D15446079B1A020698B0
:1012F0000303134303990B4323600422A3681A4298
:10130000FCD1FF2323710422A3681A42FCD1049A62
:1013100062710A9BE3600B982061A761214AA36870
:101320001342FCD14146E1631022A3681A42FCD16A
:101330002A6862631C4AA3681342FCD16B68236469
:101340001C3500211948021C8A40A3681342FCD1B5
:1013500004CD0B1C10339B00E3185A6001310429A3
:10136000F1D10DE0172059E0172057E0172055E084
:10137000172053E0172051E017204FE017204DE0D1
:1013800000204BE0172049E0F90E00000004004067
:10139000FFFFFF0010050020ED1D0000611D000093
:1013A000C51E00004000020080000400000108008B
:1013B0006A7E1201302111402A7E0720024011432B
:1013C00088462A7D002A20D0802252021143884676
:1013D0001BE080229202404610438046AA7D002AEC
:1013E00003D108E0AA7D002A13D08022D202414610
:1013F000114388460DE0EA7D002A00D02EE732E74F
:10140000EA7C012A00D07DE677E66A7D002AE0D1F9
:10141000E8E7EA7D002A00D020E724E70DB03CBCD5
:1014200090469946A246AB46F0BDC046920083184E
:101430005960034BD358426B1343436300207047FA
:10144000D421000038B5041C0D1C0068074B9847D8
:1014500080225201064B1A60AD00064BEB58A26B7E
:101460001A43A2632268936238BDC046F90E000099
:1014700000E100E0D4210000F0B5474680B48000D0
:101480000D4BC6583368DB6A726B1340B26B1A405F
:1014900090460024094FE55943462B4205D03319A5
:1014A0005B68301C98473368DD620434302CF2D11D
:1014B00004BC9046F0BDC04610050020D4210000B9
:1014C00008B50020014B984708BDC04679140000BC
:1014D00008B5054805490122054B9847802252046A
:1014E000044BDA6108BDC046DC0400200000002087
:1014F000450B00000044004130B583B001A9002332
:101500000B708B706A46137001255570937002231F
:101510004B700720044CA0476B461D70182069468D
:10152000A04703B030BDC046E115000070B5AAB0B9
:101530001D4B98471D4B9847802252041C4B5A6103
:101540001C4C0820A0470028FBD001AC1A4E201CE0
:10155000311C1A4B98470023A3720523E372184BE2
:101560006360184D281C311C221C174B98472B68B0
:10157000022299680A42FCD1196802220A431A60C1
:10158000104C201C11490022114B9847201C0021AF
:10159000104B9847104B98470122104B1A70BFF31D
:1015A0005F8F62B6FEE7C046F9140000F11E00002E
:1015B000004400413D1A000000140042FD0E0000EE
:1015C000B0710B001405002039100000D114000088
:1015D0002D14000045140000E50E0000040000205A
:1015E00000B583B001AB80221A700A785A704A782D
:1015F0009A708A78DA70191C014B984703B000BDC5
:10160000C51E0000FEE7C04610B5194B194A9A42A4
:1016100003D0194B164A9A4204D3184B184A9A42DF
:1016200010D31BE0174B14480330C01A8008013058
:10163000800000230E490F4AD458CC500433834213
:10164000FAD1EAE70E4B1A1D0C490331891A8908B1
:1016500089005218002102C39342FCD10A4BFF219A
:101660000A4A8A439A600A4B98470A4B9847FEE712
:1016700000000020C022000030040020540500209B
:10168000300400200400002000ED00E00000000015
:10169000E11F00002D1500000C4B1B68002B10D122
:1016A000EFF31083002B09D172B6BFF35F8F0022D6
:1016B000074B1A700122054B1A7102E00022034BFE
:1016C0001A71024B1A6801321A6070476C040020CC
:1016D00004000020084B1A68013A1A601B68002BAE
:1016E00009D1054B1B79002B05D00122034B1A7041
:1016F000BFF35F8F62B670476C04002004000020C7
:1017000008B5082834D880001B4B1B589F46802002
:10171000000230E0194B18692DE0194B186A80055A
:10172000800F184BC340181C25E0144B586922E069
:10173000124B1B68022018401DD011491022CB68A3
:101740001A42FCD00D4B1B685A0713D500200E4BD4
:1017500098470A4B9B681B041B0C58430BE0502313
:10176000074AD35C00205A0705D5044BD86802E02D
:10177000002000E0054808BD042200007404002099
:101780000008004000127A00091E0000006CDC0214
:1017900070B50C4B1C6A01788578407801221040A6
:1017A00080014026B44304432A40D0018022944360
:1017B000221C0243032001400902034802400A435D
:1017C0001A6270BD00080040FFFCFFFFF0B55F46E5
:1017D00056464D464446F0B4254A948A45780378E7
:1017E000594259418A4683789C46C1788846037994
:1017F0009946467B077B817B8B4680681D4B5861F1
:1018000001235146880004218C4304434846184074
:10181000C00008218C4304434046184000011021B9
:101820008C43044360461840400120218C4304430C
:10183000181C384080014027BC430443181C30402A
:10184000C0018026B44304430720284000020A4D0B
:101850002C40044359460B4019030848231C0340FD
:101860000B4393823CBC90469946A246AB46F0BDE2
:101870000008004074040020FFF8FFFFFFEFFFFFA7
:1018800070B5041CC168037D012B05D1038A081CB7
:10189000191C1F4B9847011CA36818011C4B984743
:1018A0000F22024000096578AD012378DB011D435A
:1018B000EDB2184B44215D541504411E0905090D74
:1018C00029439964E578ED00A17809032943257936
:1018D000AD002943A57C032635402943258A2D04E4
:1018E0000D4E35402943E67C3602E025ED003540BB
:1018F0002943257D2D01302635402943D964000137
:101900001218E06842431209044BDA6070BDC04609
:10191000FD1E0000000800400000FF0774040020C6
:10192000082843D88000224B1B589F4600203EE0E9
:10193000204B196A02220A431A62002037E01D4B2D
:10194000996902220A439A61002030E0194B198AF2
:1019500002220A431A82002029E0164B998A0222A9
:101960000A439A82002022E0134B196802220A439C
:101970001A601A68114B1A400E4B9A84191C1022D7
:10198000CB681A42FCD00C4A91680A4BD962516864
:101990009962126892B29A84002008E0054A4423B2
:1019A000D05C02210143D154002000E01720704791
:1019B0002822000000080040740400207FFF00007F
:1019C000082832D880001A4B1B589F46194B1A6AB8
:1019D00002218A431A62002028E0164B9A690221EC
:1019E0008A439A61002021E0124B1A8A02218A431D
:1019F0001A8200201AE00F4B9A8A02218A439A82A7
:101A0000002013E00C4B1A6802218A431A601A68FE
:101A100092B2084B9A84002008E0064A4423D15C25
:101A200002208143D154002000E017207047C046B7
:101A30004C2200000008004074040020082820D830
:101A40008000114B1B589F4601201BE0012310E032
:101A500002230EE010230CE050230C4AD05C032339
:101A60001840033843425841C0B20BE0082300E05D
:101A70000423064AD0681840C01A43425841C0B2F5
:101A800000E000207047C0467022000000080040BF
:101A900070B58EB0C222D2003C4B9A603C4B5A6863
:101AA0001E218A4302210A435A600AA800230370B8
:101AB0008370802212028260C3700122027103735C
:101AC0008373032242704373324B98470520324B95
:101AD00098472E490222CB681A42FCD02B4B998A98
:101AE00080220A439A8209A8002444700125857047
:101AF00004702A4B98470620274EB047284B98473A
:101B000001956A46547014725472052313700120B3
:101B10006946244B98470120234B984703A84470FB
:101B20008470C4700471214B836080231B02C360E6
:101B300005820475C474847404701D4B9847082092
:101B4000B047124850210322435C1340032BFBD1C2
:101B50000E4A4423D05C802149420143D154154AA6
:101B60000023137253729372012201926A465370DA
:101B7000137253720823137000206946094B98476B
:101B80000020094B98470EB070BDC04600080040C9
:101B900000400041CD1700002119000091170000FE
:101BA000B91B0000DD1B0000911C0000006CDC0272
:101BB0008118000000040040064B996908220A437E
:101BC0009A610122044B1A70191C0B781342FCD144
:101BD0007047C04600040040000C0040F8B5061CE9
:101BE000071C0D782D0205434B78002B02D0802373
:101BF000DB021D434B7A002B02D080231B031D43C5
:101C00004C68012C17D9631E1C420FD1022C06D937
:101C10000223002201325B009C42FBD800E000223C
:101C20001702374380235B031D4304E02702374339
:101C300080239B021D430B7A002B02D080239B0341
:101C40001D430F4A53785BB2002BFBDB0D4B9847CB
:101C50000D4B1E700A4A53785BB2002BFBDB084B1E
:101C60009F601A1C53785BB2002BFBDB044B596856
:101C7000802252020A4015435D60044B9847F8BD2C
:101C8000000C004099160000080C0040D51600001A
:101C900010B5041C0B4A53785BB2002BFBDB0A4BDC
:101CA00098470A4B1C70074A53785BB2002BFBDB4A
:101CB000044B5968802252020A435A60044B9847E9
:101CC00010BDC046000C004099160000040C0040F6
:101CD000D516000070B5041C1A4A53785BB2002B6D
:101CE000FBDB194B9847194B1C70164A53785BB2B3
:101CF000002BFBDB134E7068C004C00E144B9847DA
:101D0000051C124B1C707668F602F60F114B1C7006
:101D10000C4A53785BB2002BFBDB0A4B9C68240A0D
:101D2000A4B20D4B9847002E07D1012C07D9281CCF
:101D3000211C0A4B9847051C01E00134E540281C92
:101D400070BDC046000C004099160000040C004015
:101D500001170000080C0040D5160000FD1E000011
:101D600010B5041C064B9847064B1C70064B59884F
:101D70008022D2010A435A80044B984710BDC046C6
:101D800099160000020C0040000C0040D51600001F
:101D900010B5041C0F4B98470F4B1C700F4B588805
:101DA0000005000F59880E4A0A405A8059880D4A8A
:101DB0000A405A80191C8022D2014B881342FCD160
:101DC000064B01025888064A02400A435A80064BD5
:101DD000984710BD99160000020C0040000C00400E
:101DE000FFF0FFFFFFBFFFFFD516000010B50C7816
:101DF00024020443024B9847A4B2024B5C8010BDFE
:101E0000911D0000000C004010B5041C064B9847C3
:101E1000064B1C70064B5C882405240F054B984725
:101E2000201C054B984710BD99160000020C00407D
:101E3000000C0040D5160000D51C000030B5D47849
:101E40000023002C1DD11378802B04D01B06802486
:101E50006402234300E0002354780225AC430AD1F6
:101E60009478002C03D18024A402234302E0C024F0
:101E7000E402234341605478013C012C01D8104C0A
:101E800023400D042D0CA024E4052C431C43846244
:101E90000D0CD02424062C431C438462D478002CDF
:101EA0000CD15C0305D59378012B01D1816100E051
:101EB00041615378013B012B00D8816030BDC046A1
:101EC000FFFFFBFF08B5031C0A1CC1090020002905
:101ED00003D15809C001044940181F210B400121BA
:101EE0009940024B984708BD004400413D1E000048
:101EF00008B5014B984708BD911A0000002934D05D
:101F00000123002210B488422CD301242407A142CB
:101F100004D2814202D209011B01F8E7E400A14288
:101F200004D2814202D249005B00F8E7884201D323
:101F3000401A1A434C08A04202D3001B5C082243FB
:101F40008C08A04202D3001B9C082243CC08A0426C
:101F500002D3001BDC082243002803D01B0901D058
:101F60000909E3E7101C10BC7047002801D00020CD
:101F7000C04307B4024802A14018029003BDC04606
:101F8000190000000029F0D003B5FFF7B9FF0EBC1F
:101F90004243891A1847C0467047C0469C4603040E
:101FA000F0B51B0C17043F0C150C1E1C041C000C78
:101FB0007E436B4347434543FB18300C1818874258
:101FC00002D980235B02ED18030CED1863465C43D5
:101FD0004A433604360CA118000480194919F0BD93
:101FE00070B50D4E0D4D0024AD1BAD1005D0A300F6
:101FF000F35801349847A542F9D100F04FF9084E43
:10200000084D0024AD1BAD1005D0A300F3580134DA
:102010009847A542F9D170BDA8220000A82200006F
:10202000A8220000B0220000F0B50F2A35D9031C09
:102030000B439C0735D1161C103E36093501451956
:1020400010350C1C031C27681F6067685F60A76859
:102050009F60E7681034DF601033AB42F3D1731C2C
:102060001B01C518C9180F231340032B1BD91C1FB4
:10207000A4080134A4000023CE58EE500433A34238
:10208000FAD1ED18C91803231A4005D00023CC5CFF
:10209000EC5401339342FAD1F0BD051C002AF5D16E
:1020A000FAE7051CF2E71A1CF8E7C04608B5034B2F
:1020B000002B02D0024800F005F808BD0000000027
:1020C000D520000008B5011C00220020002300F0EC
:1020D00019F808BD38B5094B094DED1AAD1009D0F6
:1020E000013DAC00E41800E0013D23689847043C42
:1020F000002DF9D100F0DCF838BDC046BC2200004C
:10210000C0220000F0B54F464646C0B498462B4B5F
:10211000A4251B686D005C5983B0061C0F1C9146FA
:102120000193002C44D065681F2D1ADD244B002B31
:1021300002D1012040421CE0C820400000E000BF66
:10214000041EF6D000254560A42301985B00C0580A
:1021500001992060CC50C4235B00E550C6235B008E
:10216000E550002E0AD16B1C0235AD0063600020E3
:102170002F5103B00CBC90469946F0BDAB00E3185C
:10218000882248469850C420400022181068012137
:10219000A940084310608422520040469850022E05
:1021A000E1D1C6225200A318186801431960DAE78A
:1021B0001C1C4D34FF345C51B5E7C046982200002A
:1021C0000000000000080042000C00420010004225
:1021D000090A0B00010000000200000004000000DA
:1021E0000800000000100000002000000040000077
:1021F0000080000000000100000002000000040058
:10220000000008001417000070170000701700008D
:102210000E1700000E1700002A1700001A17000002
:10222000301700005E1700004C190000AC190000C8
:10223000AC1900002C1900003E1900005A190000CA
:1022400030190000681900009C190000E81900000E
:102250002A1A00002A1A00002A1A0000DA190000BF
:10226000F6190000CC190000041A00001A1A000028
:102270004C1A0000821A0000821A0000481A00005E
:10228000701A0000501A00006C1A0000541A000066
:10229000581A00004300000008000020F8B5C046AE
:1022A000F8BC08BC9E467047AD200000B500000099
:1022B000F8B5C046F8BC08BC9E4670478D000000CB
:1022C000BABB01640100000000000000F40200201D
:1022D0005C030020C4030020000000000000000098
:1022E00000000000000000000000000000000000EE
:1022F0000000000000000000000000009422000028
:1023000000000000000000000000000000000000CD
:1023100000000000000000000000000000000000BD
:1023200000000000000000000000000000000000AD
:10233000000000000000000000000000000000009D
:10234000000000000000000000000000000000008D
:10235000000000000000000000000000000000007D
:10236000000000000000000000000000000000006D
:1023700001000000000000000E33CDAB34126DE60A
:10238000ECDE05000B000000000000000000000073
:10239000000000000000000000000000000000003D
:1023A000000000000000000000000000000000002D
:1023B000000000000000000000000000000000001D
:1023C000000000000000000000000000000000000D
:00000001FF
