:100000005809002039130000351300003513000093
:1000100000000000000000000000000000000000E0
:100020000000000000000000000000003513000088
:100030000000000000000000351300003513000030
:100040003513000035130000351300003513000090
:100050003513000035130000351300003513000080
:10006000351300000D0400001D0400002D040000E5
:10007000191200003513000035130000351300007D
:1000800035130000351300003513000010B5064C81
:100090002378002B07D1054B002B02D0044800E049
:1000A00000BF0123237010BD3004002000000000B9
:1000B0003C1F000008B5084B002B03D00748084937
:1000C00000E000BF07480368002B03D0064B002B5D
:1000D00000D0984708BDC046000000003C1F00004B
:1000E000340400203C1F00000000000010B5490847
:1000F000402488420CD800235C1C091AA4B2814217
:1001000001D3231CF8E74024FF2B01D813800024DF
:10011000201C10BD00000000F0B58BB01C1C10AB03
:10012000071C187807923A1C42430D1C40238A4250
:1001300000D98FE0002C3DD1211C3A1C231C4A4ED3
:10014000B04706900020002102950F1C0D1C3F2196
:100150000394061C041C0591059A444B01200021C0
:100160009847221C2B1C8446069812196B41141CBC
:100170001D1C084203D001222243141C1D1C039A9B
:10018000AA420CD802D1029BA34208D86046304351
:100190003943029A039B061CA41A9D410F1C059B20
:1001A000013B0593D8D22F4B2D4A921BBB41160C15
:1001B0001B044BE00026012C49D1490FED000891AA
:1001C0000995311C3A1C331C274CA047029003911F
:1001D000F7B20697002705973F27002400250197CF
:1001E000019A224B012000219847099F221C0740B9
:1001F000BC46089F2B1C12196B4139406746141CE2
:100200001D1C394303D001222243141C1D1C0399D9
:10021000A9420AD802D1029AA24206D8059F0299A1
:10022000039A0743641A95410597019F013F01977F
:10023000D6D2059F0E4ABB1BDB08934204D9013678
:10024000082EC5D1402305E0069F7E031E43079F6D
:1002500000233E80181C0BB0F0BDC046C046C0460F
:1002600000000000010000000D1C0000F51B000054
:10027000FF1F0000C046C0460E4B37B51A78041C5D
:100280001D1C002A01D000290CD001A90D200A4B09
:100290000C7098470D20094B984701236C702B7008
:1002A000002006E05A781D20141B621E944164420F
:1002B00020403EBD4C040020391A0000B119000056
:1002C0001D4A031C00B5081C934212D01B4A9342DE
:1002D0001CD01B4A934226D1002303292AD801F0BF
:1002E0002FFC02240406174B24E0174B22E0174B87
:1002F00020E0002303291DD801F022FC0219040686
:10030000134B17E0134B15E0134B13E000230329A5
:1003100010D801F015FC020E0406104B0AE0104B39
:1003200008E0104B06E0002304E00F4B02E00F4B07
:1003300000E00F4B181C00BD000C004200100042F2
:100340000008004203000400030006000300070049
:100350000200160003001E0003001F000300160029
:10036000030010000300190003000500020017003D
:100370000300170070470000F0B50C4B85B001AAD0
:100380001C1CE0CCE0C2019A011C824208D05D68CE
:10039000854207D09B6800208B4205D1022002E0F5
:1003A000002000E00120C0B205B0F0BDD01E00006A
:1003B000094B30B51A78002A09D1084C084D226043
:1003C0006260A26001225D609D60DD601A70800045
:1003D0001B18596030BDC04654040020940400200E
:1003E0007503000037B5064901AC051C0C3103222A
:1003F000201C044B9847281C034B984720563EBDB1
:10040000D01E0000991C00007903000008B5024BC3
:1004100000205B68984708BD5404002008B5024BD3
:1004200001209B68984708BD5404002008B5024B82
:100430000220DB68984708BD54040020F0B5071C73
:1004400039600B6889B00D1C141C1C209A0700D55C
:10045000B3E00B680126334000930520002B00D049
:10046000ABE0081C564B9847564B811C1A6A8E40CD
:1004700032431A62621D0192061CD37F0E366A4611
:10048000F6B2137202A9301C4F4B9847301C4F4BE9
:100490009847019B0099D87F4D4B98472378484A4D
:1004A000002B03D12B6808210B432B600023F91884
:1004B00000250433CD601C2BF9D13B1C3633BD869F
:1004C000FD623D86BD621D705D709D7003237B7271
:1004D00038683D7190473F4B3F49061C98473F4B5A
:1004E000B6006846F750A26A802303730123837322
:1004F0004573C5730492E36A206B626B3E68059393
:1005000006900792AB0004AAD058E9B2002802D1A5
:10051000301C334B9847431C06D06A461073000CBE
:10052000C0B203A92F4B98470135042DEAD1237897
:100530007B71227CBA71A27CFA71227D3A72002B07
:100540000FD1E27FA57F706A12042A430243A1699A
:10055000A38B7262621CD27F002A04D04022134314
:1005600001E00023191C6068A2680243E0680243AE
:100570000A43217C0B43617C002903D11A49897805
:10058000880701D580210A43A17C002902D080215F
:1005900089020B43E17C002902D0802189000B43B2
:1005A000217D002902D0802189010B433168002080
:1005B0000A43326072681343736009B0F0BDC046ED
:1005C0007903000000040040391A0000B11900004E
:1005D00079020000B1030000050600009404002029
:1005E000C1020000091B000000200041931C9B0079
:1005F000C31859600123363093401A1C03781A43FC
:1006000002707047F8B5684B8000C458231C221C48
:100610003633373225681B7816782F7E1E40AB7D27
:100620001F40F9072FD56379002B2CD1637A002B5B
:1006300029D0E36A591C1A78E162A179D2B2012962
:1006400004D15978023309020A43E362D205D20D7C
:10065000AA62A38E013B9BB2A386A38E002B12D16C
:1006600001232B75637ADBB2012B0CD1E279002ACE
:1006700009D103216172211C38310A701E4202D057
:10068000201CE368984704231F425FD06A8B1A42FC
:1006900015D0637A012B0CD0231C38331E221A701C
:1006A0000323637205232B75310702D5201CA36930
:1006B0009847AB6A6B8B042213436B8346E0617AE5
:1006C0002268C9B2926A012913D1628E013A92B2AC
:1006D0006286628E92B2002A38D12B75231C383381
:1006E0001A70032363720E4230D0201CE1688847E1
:1006F0002CE0D205A16AD20DD3B20B70A36A591CAB
:10070000A162A179012904D1120A5A70A36A0133A6
:10071000A362238E013B9BB22386238E9BB2002BC8
:1007200014D1221C3832137004232B75627A022AEA
:1007300004D11E420AD0201C636906E0637A002BB4
:1007400004D1B10702D52369201C98470222174221
:1007500011D06379002B0ED1072129752A76032247
:100760006272221C3832A38623861370F10602D5EA
:10077000201CE369984708231F4209D06279002AA8
:1007800006D12B752B76B10602D5201C236A98471B
:10079000FF0907D080232B752B76710602D5636A7B
:1007A000201C9847F8BDC046940400200268D36915
:1007B000002BFCD170470000F0B593B001600691AA
:1007C000071C081CA049141C8847069A05211368B9
:1007D00001260391334200D032E1156802231C2226
:1007E0001D40039200D02BE1984B821C196A0391A3
:1007F000311C91400A1C03990A431A62221C2D32B3
:10080000049213780CA90B70031C0E33DBB2181C76
:1008100003938F4B984703988E4B9847049B291C52
:1008200018788D4B9847E37A39687B71631DDB7FBD
:10083000081CBB71A31DDB7F834AFB71E37E3B7207
:10084000237F05917B7290470EAB1D80238A0E306B
:10085000049304998023DB01994212D006D88023A7
:100860009B01994213D11022039213E0049AC023F2
:10087000DB019A4208D080231B0203219A4207D051
:1008800005E00823039304E00823039302E010210A
:10089000039100262268E368616908930792099131
:1008A000227EE31D0A92DB7F62680B93231C0833D0
:1008B000002A10D0802149058A4224D1DB7F002BF9
:1008C00021D1664BC0B2256A98470EAA011C644B21
:1008D000281C984713E0DB7F256A002B04D0039B7C
:1008E000281C0093A16A06E0C0B25C4B9847039AAB
:1008F000011C0092281C0EAA331C5A4DA8470390D5
:10090000002800D09CE0637E002B02D0A37E0599D6
:100910008B73381C544EB0470EAB1B88059A089D4C
:100920009381079B09991D4362680D43049B0A99B3
:1009300015430B9A1D430B021D4353071D43231CF4
:100940000833DB7F002B01D104231D43667E237F08
:10095000B6025B021E43E27AA37A13431E43637F0F
:1009600022891B021E43631DDB7F5B041E43A31D04
:10097000DB7F1B041E43E37EFF2A06D0002B02D040
:10098000A023DB041D43164304E0002B02D0802388
:10099000DB041D43231C2C331B78002B03D1334B6A
:1009A0009B78990701D580231D432F4A381C904717
:1009B000059B2D495E60381C8847059A0023156009
:1009C00000210DAD03938023226B2B706970636B44
:1009D000E970A970A16BE46B0EAEF4600E927360C7
:1009E000B1600024A300F058E1B2002802D10698BB
:1009F0001F4B9847421C05D02870000CC0B2291C20
:100A00001C4B98470134042CECD13A1C00233032A3
:100A1000FB85FB603B617B61BB61FB613B62BB6251
:100A20007B62BB853868937013705370D370064B2C
:100A30009847114B1149041C9847114BA400E750EB
:100A4000039813B0F0BDC0467903000000040040D5
:100A5000391A0000B119000079020000551A00008F
:100A6000ED00000019010000AD070000002000416A
:100A7000C1020000091B0000B10300009D0A000034
:100A800094040020931C9B00C3185960012330304C
:100A900093401A1C03781A4302707047F8B5574BFD
:100AA0008000C4582568EB69002BFCD12F7EAB7DFC
:100AB000221C1F40231C313330321B7816781E4015
:100AC00001231F421ED0E28D002A1AD0A36A591CAE
:100AD0001A78A1626179D2B2012904D1597802331E
:100AE00009020A43A362D205D20D2A85E38D013B98
:100AF0009BB2E385002B05D101232B750223AB7537
:100B000000E02B7502231F4209D02B75231C002205
:100B100033331A70F10702D5201CE2689047042392
:100B20001F424CD0A28D002A48D06B8B3F22DBB2F3
:100B3000190700D5372213401ED002221A21134272
:100B40000FD104221E2113420BD101221321134283
:100B500007D110224221134203D12022134206D092
:100B60004121231C323319706B8B1A436A8372073D
:100B700025D5201C63691FE02A8D616AD205D20D3C
:100B8000D3B20B70636A591C61626179012904D187
:100B9000120A5A70636A01336362A38D013B9BB2F0
:100BA000A385002B0BD104222A75221C323213702C
:100BB000B20704D52369201C984700E02B75102349
:100BC0001F4206D02B752B761E4202D0201CE169F5
:100BD000884720231F4206D02B752B76320702D57B
:100BE000201CA369984708231F4206D02B752B763B
:100BF000B10602D5236A201C9847F8BD9404002052
:100C0000704770477047704770470000F0B591B06B
:100C10006B4600246A4601260D3314765476967688
:100C2000D6761477DC77211C0C22244B08A8039479
:100C3000049498476B461C720933DE7780239B022D
:100C400005931F4B1F4D0C931F4B20490D93204BB9
:100C500002AA0E931F4B281C0F931F4B98472C681A
:100C60001E4B201C98471F2318401D4B86401E60BA
:100C70002B68DA690192002AFBD1236802263343EC
:100C800023602C1C3734174F281C17490122B84702
:100C90002378281C3343019A14492370B8472378DA
:100CA00001221343281C321C11492370B8472378B2
:100CB00004221343237011B0F0BDC0461D1D000077
:100CC00003000E00A004002003000F0000100042EB
:100CD00003001000030019003D040000E5030000BC
:100CE00000E100E0ED050000010C0000030C000035
:100CF000050C0000F0B591B06A460126053280234C
:100D0000D677DB059219D677009392190023D37713
:100D100002AA6946D3770BAA8B72CB7213705370F9
:100D20000B82CB760B760B774B770B8101930A9373
:100D3000059380235B0303931C4B13220C931C4BE2
:100D40001C4D8A76E12252020D9373424E76089230
:100D50000E936A460F931849184B281C98472C6825
:100D6000174B201C98471F231840164B86401E60C7
:100D70002B68DE69002EFCD1236802273B432360E9
:100D80002C1C3134281C10490122104B9847237821
:100D9000321C1F43281C0E490C4B277098472378A0
:100DA00001221343237011B0F0BDC04602001600AB
:100DB00002001700DC040020000C0042B90700000C
:100DC000E503000000E100E0070C0000850A0000D8
:100DD000090C000008B5024B9847024B984708BD24
:100DE0000D0C0000F50C000000207047374A10B5CC
:100DF0004260021C00232C32041C483403608372BE
:100E0000C372037343720372C361036243628362FA
:100E1000037543758375C375037643760374437412
:100E20008374C374137053709370D37013715371C0
:100E30009371D371137253729372D3720C32137015
:100E400053709370D370137153719371D371137284
:100E500053729372D372137353739373D373011DCD
:100E600023706370A370E37023716371A371E371E6
:100E700023726372A372E37223736373A373E373C6
:100E80005034303A2370836583676370C365C367EA
:100E9000A3700366CB6797310B704366D3679432B8
:100EA0001370143A8366136053750432C36613607B
:100EB00093740432036701211360D37343670432D0
:100EC000A13013601173037010BDC046FFFFFF0017
:100ED000F0B5A54B91B0071C081C0D1C141C9847BD
:100EE000A24B0B901A6A20210A431A622B681C201D
:100EF000990700D536E12A680123134000D031E17B
:100F00009B4A2668964201D917202BE160689042DF
:100F1000FAD8E118C9699142F6D80433102BF8D1F8
:100F200000260396331CE218127C012A05D1802288
:100F3000039E52049A40164303960133042BF2D1C8
:100F4000231CA1331B78002B04D0039E80231B019C
:100F50001E430396267B227A0796511E8A41E67A23
:100F6000637A920008960692012B01D11A430692E9
:100F7000231C3133002219790329C5D8581F06785C
:100F80000F2EC1D8F020000536060640181F007845
:100F9000029600040590D81E00788902461EB041D2
:100FA000C0010490981E0078461EB041C000099010
:100FB000581E0078461EB04100010A9058786026FD
:100FC000400130409E7801903602B446C02660460B
:100FD000B6000640019830431E780190032030404F
:100FE000019E06430196DE780A333603B446E026B6
:100FF0006046F601064001983043C0263601314074
:10100000029E014305983143049E014309983143F0
:101010000A9E014331430EAE91510432082AAAD1EF
:1010200000260296331CE218111C50310978002961
:1010300005D08021029E490299400E430296D218A3
:1010400041321278002A08D0022A01D1FF3200E092
:101050000122029E9A40164302960133082BE2D1E8
:10106000627E30231201217E1A4007230B401A436F
:1010700005920023E218127D002A05D08022059EE9
:1010800052029A40164305960133042BF2D10023F5
:10109000FA18002604335660302BF9D10B98354BE3
:1010A0008200D750231C3D607E63BE63A0331B7853
:1010B0003C373B70A37A0CA90B7011202E4B98473C
:1010C00011202E4B9847271CA31998331B78002B0F
:1010D0000BD00DA9012300228B704B70BB6DCA7021
:1010E000BA6FD8B2264B0A70984701360437082EDB
:1010F000EAD1089E3202079E3303039E1343334313
:101100002B60AB685807FCD4FF232B71AB685907E1
:10111000FCD4069E0E986E710F99029EE8602961BC
:10112000AE61AA68174B1A42FBD1059EEE63AB680D
:10113000D806FCD421686963AA68134B1340FBD11D
:1011400062682A64114A9A40A8681040FCD19A004B
:10115000A218D1691A1C10329200AA1801335160EA
:10116000042BEFD111B0F0BDE90D000000040040E8
:10117000FFFFFF0010050020391A0000B119000020
:10118000091B00004000020080000400000108006C
:10119000920083185960034BD358426B1343436347
:1011A00000207047E01E000038B5041C084B0068A2
:1011B0000D1C9847074B802252011A60064BAD0068
:1011C000EB58A26B1A43A2632268936238BDC046F3
:1011D000E90D000000E100E0E01E0000F8B50C4B56
:1011E0008000C45800252368DF6A636B1F40A36B2F
:1011F0001F40084BEE58374205D063195B68201C2E
:1012000098472368DE620435302DF2D1F8BDC04620
:1012100010050020E01E000008B50020014B984793
:1012200008BDC046DD110000024B80225204DA6185
:101230007047C0460044004173B500236A4601ACC4
:10124000137093700126074D2370A3706946022323
:10125000072066705370A8471820211C2670A847E5
:1012600073BDC0461513000030B51C4BABB098479A
:101270001B4B984780221B4B52045A6108201A4B83
:1012800098470028FAD001AC201C1849184B984701
:101290000023A3720523174DE372174B281C6360CC
:1012A0001249164B221C98472B689C680222144056
:1012B000FBD11968281C0A431A601149221C114BE2
:1012C0009847281C211C104B9847104B9847104BEF
:1012D00001221A70BFF35F8F62B6FEE73912000079
:1012E000351B000000440041A1160000001400421C
:1012F000ED0D000014050020B0710B00D10E0000B0
:101300002912000091110000A9110000D50D000064
:101310000000002007B5802201AB1A700A785A70CD
:101320004A789A708A78191CDA70014B984707BD81
:10133000091B0000FEE700001148124910B5884261
:1013400001D0002301E0104B07E0104CCA18A24264
:10135000F9D2C45804331460F7E70D4A191D043B51
:10136000934203D200221A600B1CF6E7094A0A4B8B
:10137000FF218A439A60094B9847094B9847FEE73B
:101380003C1F000000000020340400203004002036
:10139000540500200000000000ED00E0511C00009A
:1013A00069120000094B1A68002A0AD1EFF3108174
:1013B000002905D172B6BFF35F8F054A1170012273
:1013C0001A711A6801321A607047C0466C04002016
:1013D00000000020084B1A68013A1A601A68002AB7
:1013E00008D11B79002B05D0044B01221A70BFF3E2
:1013F0005F8F62B67047C0466C040020000000207A
:1014000010B5082832D800F09BFB083131050513D0
:101410000B162900802000022BE0164B186928E0EB
:10142000154B186A154B8005800FC340181C20E02F
:10143000104B58691DE00F4C02232068184018D04B
:101440000D4BDB68DA06FBD523685A0710D50C4B29
:1014500000209847A3689BB258430AE0094B00203C
:101460001B785A0705D5034BD86802E0002000E03E
:10147000054810BD740400200008004000127A00E6
:10148000551A000050080040006CDC0270B50D4B8E
:1014900045781E6A817804780122402086431540F1
:1014A000AD01301C0A402843D10180229043021C28
:1014B0000A43054803212140090202400A431A62F7
:1014C00070BDC04600080040FFFCFFFFF0B5234A96
:1014D000417885B0031C978A03919C78007800942A
:1014E00041424841597BDD781E7901911C7B800087
:1014F0000294997B9C681A4B5C6104240123A743E6
:1015000038431E400827B8431D40F6000643A54057
:101510001020009C864335431C40670120202C1C72
:1015200084433C43029F40201F4084430198BF01F5
:101530003C4318408025C001AC43039D0443072071
:101540002840084D00022C40044307481940231C42
:10155000090303400B43938205B0F0BD000800402F
:1015600074040020FFF8FFFFFFEFFFFF70B5027D5E
:10157000041CC368204D012A03D1018A181CA84706
:10158000031CA268191C1001A84765782278AD01D8
:10159000D201154319490F230340EDB200090D7024
:1015A000411E0905164A1D04090D29439164E57879
:1015B000A178ED00090329432579A67CAD002943D4
:1015C000032535402943258A0E4E2D043540E67CFF
:1015D0002943E0253602ED0035402943257D30269C
:1015E0002D0135402943D16400011B18E068064AEB
:1015F00043431B09D36070BD551B000044080040E5
:10160000000800400000FF077404002010B50828FF
:101610003DD800F095FA113C3C340B17051D3600FF
:101620001C4B02211A6A0A431A6228E0194B022154
:101630009A690A439A6122E0164B02211A8A0A43E8
:101640001A821CE0134B02219A8A0A439A8216E0FE
:10165000114B02211A680A431A60196880229143CB
:101660000C4A89B29184101CC1680A4ACC06FBD589
:101670009968D162596891621B689BB2938400207B
:1016800006E0064B02211A780A431A70F7E7172082
:1016900010BDC0460008004074040020440800400B
:1016A00000B508281FD800F04BFA071E1E051509C3
:1016B000130B0D00012017E001230CE002230AE0C8
:1016C000102308E0094B187803231840033806E07C
:1016D000082300E00423064AD0681840C01A434299
:1016E0005841C0B200E0002000BDC0465008004094
:1016F00000080040F0B5C2233A4CDB00A3603A4B2F
:101700001E215A688FB08A4302210A435A60802200
:1017100004A8120200238260012203708370C37048
:1017200002710373837343730322304B42709847F3
:1017300005202F4FB847E2682A4B9107FBD59A8ABC
:1017400080210A4300259A8201266B465D701D7038
:101750009E706846274B98470620B847264B08AC32
:10176000984705232370301C244B211C657025727B
:101770006572666098472249301C8847214B201CBF
:10178000A36080231B02E3601F4B6570A570E570AA
:1017900025712575E574A574257026829847082063
:1017A000B847164A164D194B197803230B40032BE3
:1017B000F9D1174B80211878494201431970154B14
:1017C00000241C7201A95C729C7201234B60201CD6
:1017D00008234C700C724C720B709047201CA84769
:1017E0000FB0F0BD0008004000400041CD140000E3
:1017F0000D1600008D14000025180000451800008B
:10180000E9180000006CDC026D1500005008004073
:101810004408004000040040014B5878C00970475C
:10182000000C0040054B08219A690A439A61044B59
:1018300001221A701A78D107FCD4704700040040C6
:10184000000C0040F8B50C784B782402051C061CEF
:101850000443002B02D08023DB021C434B7A002B75
:1018600002D080231B031C434B68012B13D95E1E3F
:101870001E400222002E09D19A4202D201365200A5
:10188000FAE7360280232E435B0303E01E02802327
:101890002E439B021C430B7A002B02D080239B0318
:1018A0001C430C4FB8470028FBD10B4B98470B4B00
:1018B0001D70B8470028FCD1094DAE60B84700281C
:1018C000FCD16A6880235B0213401C436C60054BAB
:1018D0009847F8BD19180000A5130000080C004037
:1018E000000C0040D513000038B5051C094CA0477A
:1018F0000028FBD1084B9847084B1D70A0470028D3
:10190000FCD1074B8022596852020A435A60054BAA
:10191000984738BD19180000A5130000040C0040BA
:10192000000C0040D5130000F7B5061C184FB8474F
:101930000028FBD1174B9847174B1E70B84700285B
:10194000FCD1164D164B6868C004C00E9847124B68
:10195000041C1E706B68DB02DB0F0193114B1E70C1
:10196000B8470028FCD1AD680F4B9847019B2D0A62
:10197000ADB2002B07D1012D07D9201C291C0B4B20
:101980009847041C01E00135EC40201CFEBDC04618
:1019900019180000A5130000040C0040000C0040C2
:1019A00001140000080C0040D5130000551B000076
:1019B00010B5074B041C9847064B80221C70064B41
:1019C000D20159880A435A80044B984710BDC0463B
:1019D000A5130000020C0040000C0040D5130000CD
:1019E00038B50F4B041C98470E4B0F4A1C700F4B19
:1019F000598858880905104058805C880C48090FA0
:101A000020405880101C5C88084A6504FBD4538829
:101A1000090203400B435380064B984738BDC0462C
:101A2000A5130000020C0040FFF0FFFF000C004077
:101A3000FFBFFFFFD513000010B50C78034B240245
:101A400004439847024BA4B25C8010BDE11900002A
:101A5000000C004010B5074B041C9847064B1C7047
:101A6000064B5C88064B2405240F9847201C054B29
:101A7000984710BDA5130000020C0040000C004068
:101A8000D51300002919000030B5D47800239C42FA
:101A90001AD11478802C03D0802324065B022343C0
:101AA00054780225AC4309D19478002C02D18024CB
:101AB000A40201E0C024E402234341605478013CC5
:101AC000012C01D80F4C2340A0248DB2E4052C43F7
:101AD0001C438462D0240D0C24062C431C438462D6
:101AE000D478002C0CD15C0305D59378012B01D15F
:101AF000816100E041615378013B012B00D8816096
:101B000030BDC046FFFFFBFF08B5031C0A1C40099F
:101B1000D90903D10549C001401800E000201F2168
:101B20000B4001219940024B984708BD00440041F9
:101B3000891A000008B5014B984708BDF51600004A
:101B400002B4714649084900095C49008E4402BC50
:101B50007047C046002934D00123002210B48842C7
:101B60002CD301242407A14204D2814202D20901CC
:101B70001B01F8E7E400A14204D2814202D24900ED
:101B80005B00F8E7884201D3401A1A434C08A04290
:101B900002D3001B5C0822438C08A04202D3001B26
:101BA0009C082243CC08A04202D3001BDC0822433D
:101BB000002803D01B0901D00909E3E7101C10BC61
:101BC0007047002801D00020C04307B4024802A19A
:101BD0004018029003BDC046190000000029F0D053
:101BE00003B5FFF7B9FF0EBC4243891A1847C04638
:101BF0007047C0469140031C90409C46203A934059
:101C0000194352426346D340194370479C4603042C
:101C1000F0B51B0C17043F0C150C1E1C041C000C0B
:101C20007E436B4347434543FB18300C18188742EB
:101C300002D980235B02ED18030CED1863465C4368
:101C40004A433604360CA118000480194919F0BD26
:101C500070B50D4E0D4D0024AD1BAD1005D0A30089
:101C6000F35801349847A542F9D100F055F9084ED0
:101C7000084D0024AD1BAD1005D0A300F35801346E
:101C80009847A542F9D170BD241F0000241F000011
:101C9000241F00002C1F0000F0B50F2A35D9031CAB
:101CA0000B439C0735D1161C103E360935014519EA
:101CB00010350C1C031C27681F6067685F60A768ED
:101CC0009F60E7681034DF601033AB42F3D1731CC0
:101CD0001B01C518C9180F231340032B1BD91C1F48
:101CE000A4080134A4000023CE58EE500433A342CC
:101CF000FAD1ED18C91803231A4005D00023CC5C93
:101D0000EC5401339342FAD1F0BD051C002AF5D101
:101D1000FAE7051CF2E71A1CF8E7C046F0B583079E
:101D200046D0541E002A42D0CEB2031C032503E045
:101D3000621E002C3BD0141C01335A1E16702B421D
:101D4000F6D1032C2BD9FF250D402A0215432A0476
:101D500015430F2C15D9271C103F3F091E1C3A01B3
:101D60001036B6181A1C156055609560D560103293
:101D7000B242F8D101373F010F22DB191440032C86
:101D80000DD9271FBF08BA001E1DB6181A1C20C285
:101D9000B242FCD10137BF000322DB191440002CF2
:101DA00005D01C19C9B219700133A342FBD1F0BD93
:101DB000141C031CC5E7C04608B5034B002B02D01A
:101DC000024800F005F808BD00000000E11D000019
:101DD00008B5011C00220020002300F019F808BDFE
:101DE00038B5094B094DED1AAD1009D0013DAC00D5
:101DF000E41800E0013D23689847043C002DF9D128
:101E000000F094F838BDC046381F00003C1F0000A9
:101E1000F0B54F464646C0B498462B4BA4251B68E8
:101E20006D005C5983B0061C0F1C91460193002C79
:101E300044D065681F2D1ADD244B002B02D10120F0
:101E400040421CE0C820400000E000BF041EF6D065
:101E500000254560A42301985B00C05801992060CB
:101E6000CC50C4235B00E550C6235B00E550002E38
:101E70000AD16B1C0235AD00636000202F5103B006
:101E80000CBC90469946F0BDAB00E318882248464A
:101E90009850C4204000221810680121A94008432E
:101EA00010608422520040469850022EE1D1C62292
:101EB0005200A318186801431960DAE71C1C4D345E
:101EC000FF345C51B5E7C046141F0000000000005D
:101ED00000080042000C004200100042090A0B00FA
:101EE00001000000020000000400000008000000E3
:101EF00000100000002000000040000000800000F2
:101F000000000100000002000000040000000800C2
:101F10004300000008000020F8B5C046F8BC08BC2B
:101F20009E467047B91D0000B5000000F8B5C046D8
:0C1F3000F8BC08BC9E4670478D00000005
:101F3C00010000000000000000000000F40200207E
:101F4C005C030020C403002000000000000000001F
:101F5C000000000000000000000000000000000075
:101F6C00000000000000000000000000101F000036
:101F7C000000000000000000000000000000000055
:101F8C000000000000000000000000000000000045
:101F9C000000000000000000000000000000000035
:101FAC000000000000000000000000000000000025
:101FBC000000000000000000000000000000000015
:101FCC000000000000000000000000000000000005
:101FDC0000000000000000000000000000000000F5
:101FEC0001000000000000000E33CDAB34126DE692
:101FFC00ECDE05000B0000000000000000000000FB
:10200C0000000000000000000000000000000000C4
:10201C0000000000000000000000000000000000B4
:10202C0000000000000000000000000000000000A4
:10203C000000000000000000000000000000000094
:00000001FF
